{
  "_format": "hh-sol-artifact-1",
  "contractName": "Transaction",
  "sourceName": "contracts/Transaction.sol",
  "abi": [
    {
      "anonymous": false,
      "inputs": [
        {
          "indexed": false,
          "internalType": "address",
          "name": "from",
          "type": "address"
        },
        {
          "indexed": false,
          "internalType": "address",
          "name": "receiver",
          "type": "address"
        },
        {
          "indexed": false,
          "internalType": "uint256",
          "name": "amount",
          "type": "uint256"
        },
        {
          "indexed": false,
          "internalType": "string",
          "name": "message",
          "type": "string"
        },
        {
          "indexed": false,
          "internalType": "uint256",
          "name": "timestamp",
          "type": "uint256"
        }
      ],
      "name": "TransferEth",
      "type": "event"
    },
    {
      "inputs": [],
      "name": "getTransactions",
      "outputs": [
        {
          "components": [
            {
              "internalType": "address",
              "name": "sender",
              "type": "address"
            },
            {
              "internalType": "address",
              "name": "receiver",
              "type": "address"
            },
            {
              "internalType": "uint256",
              "name": "amount",
              "type": "uint256"
            },
            {
              "internalType": "string",
              "name": "message",
              "type": "string"
            },
            {
              "internalType": "uint256",
              "name": "timestamp",
              "type": "uint256"
            }
          ],
          "internalType": "struct Transaction.TransactionStructure[]",
          "name": "",
          "type": "tuple[]"
        }
      ],
      "stateMutability": "view",
      "type": "function"
    },
    {
      "inputs": [
        {
          "internalType": "address payable",
          "name": "_receiver",
          "type": "address"
        },
        {
          "internalType": "uint256",
          "name": "amount",
          "type": "uint256"
        },
        {
          "internalType": "string",
          "name": "_message",
          "type": "string"
        }
      ],
      "name": "sendEth",
      "outputs": [],
      "stateMutability": "nonpayable",
      "type": "function"
    }
  ],
  "bytecode": "0x608060405234801561001057600080fd5b50610c33806100206000396000f3fe608060405234801561001057600080fd5b50600436106100365760003560e01c806383920e901461003b578063f14311c014610059575b600080fd5b610043610075565b60405161005091906105c4565b60405180910390f35b610073600480360381019061006e9190610799565b610226565b005b60606000805480602002602001604051908101604052809291908181526020016000905b8282101561021d57838290600052602060002090600502016040518060a00160405290816000820160009054906101000a900473ffffffffffffffffffffffffffffffffffffffff1673ffffffffffffffffffffffffffffffffffffffff1673ffffffffffffffffffffffffffffffffffffffff1681526020016001820160009054906101000a900473ffffffffffffffffffffffffffffffffffffffff1673ffffffffffffffffffffffffffffffffffffffff1673ffffffffffffffffffffffffffffffffffffffff1681526020016002820154815260200160038201805461018290610837565b80601f01602080910402602001604051908101604052809291908181526020018280546101ae90610837565b80156101fb5780601f106101d0576101008083540402835291602001916101fb565b820191906000526020600020905b8154815290600101906020018083116101de57829003601f168201915b5050505050815260200160048201548152505081526020019060010190610099565b50505050905090565b60006040518060a001604052803373ffffffffffffffffffffffffffffffffffffffff1681526020018573ffffffffffffffffffffffffffffffffffffffff16815260200184815260200183815260200142815250908060018154018082558091505060019003906000526020600020906005020160009091909190915060008201518160000160006101000a81548173ffffffffffffffffffffffffffffffffffffffff021916908373ffffffffffffffffffffffffffffffffffffffff16021790555060208201518160010160006101000a81548173ffffffffffffffffffffffffffffffffffffffff021916908373ffffffffffffffffffffffffffffffffffffffff1602179055506040820151816002015560608201518160030190816103519190610a14565b506080820151816004015550507fd3082c881228f3cf4c47381fb8f6a766031138c2acc7939d0a72d2ab5c4319613384848442604051610395959493929190610ba3565b60405180910390a1505050565b600081519050919050565b600082825260208201905092915050565b6000819050602082019050919050565b600073ffffffffffffffffffffffffffffffffffffffff82169050919050565b60006103f9826103ce565b9050919050565b610409816103ee565b82525050565b6000819050919050565b6104228161040f565b82525050565b600081519050919050565b600082825260208201905092915050565b60005b83811015610462578082015181840152602081019050610447565b60008484015250505050565b6000601f19601f8301169050919050565b600061048a82610428565b6104948185610433565b93506104a4818560208601610444565b6104ad8161046e565b840191505092915050565b600060a0830160008301516104d06000860182610400565b5060208301516104e36020860182610400565b5060408301516104f66040860182610419565b506060830151848203606086015261050e828261047f565b91505060808301516105236080860182610419565b508091505092915050565b600061053a83836104b8565b905092915050565b6000602082019050919050565b600061055a826103a2565b61056481856103ad565b935083602082028501610576856103be565b8060005b858110156105b25784840389528151610593858261052e565b945061059e83610542565b925060208a0199505060018101905061057a565b50829750879550505050505092915050565b600060208201905081810360008301526105de818461054f565b905092915050565b6000604051905090565b600080fd5b600080fd5b6000610605826103ce565b9050919050565b610615816105fa565b811461062057600080fd5b50565b6000813590506106328161060c565b92915050565b6106418161040f565b811461064c57600080fd5b50565b60008135905061065e81610638565b92915050565b600080fd5b600080fd5b7f4e487b7100000000000000000000000000000000000000000000000000000000600052604160045260246000fd5b6106a68261046e565b810181811067ffffffffffffffff821117156106c5576106c461066e565b5b80604052505050565b60006106d86105e6565b90506106e4828261069d565b919050565b600067ffffffffffffffff8211156107045761070361066e565b5b61070d8261046e565b9050602081019050919050565b82818337600083830152505050565b600061073c610737846106e9565b6106ce565b90508281526020810184848401111561075857610757610669565b5b61076384828561071a565b509392505050565b600082601f8301126107805761077f610664565b5b8135610790848260208601610729565b91505092915050565b6000806000606084860312156107b2576107b16105f0565b5b60006107c086828701610623565b93505060206107d18682870161064f565b925050604084013567ffffffffffffffff8111156107f2576107f16105f5565b5b6107fe8682870161076b565b9150509250925092565b7f4e487b7100000000000000000000000000000000000000000000000000000000600052602260045260246000fd5b6000600282049050600182168061084f57607f821691505b60208210810361086257610861610808565b5b50919050565b60008190508160005260206000209050919050565b60006020601f8301049050919050565b600082821b905092915050565b6000600883026108ca7fffffffffffffffffffffffffffffffffffffffffffffffffffffffffffffffff8261088d565b6108d4868361088d565b95508019841693508086168417925050509392505050565b6000819050919050565b600061091161090c6109078461040f565b6108ec565b61040f565b9050919050565b6000819050919050565b61092b836108f6565b61093f61093782610918565b84845461089a565b825550505050565b600090565b610954610947565b61095f818484610922565b505050565b5b818110156109835761097860008261094c565b600181019050610965565b5050565b601f8211156109c85761099981610868565b6109a28461087d565b810160208510156109b1578190505b6109c56109bd8561087d565b830182610964565b50505b505050565b600082821c905092915050565b60006109eb600019846008026109cd565b1980831691505092915050565b6000610a0483836109da565b9150826002028217905092915050565b610a1d82610428565b67ffffffffffffffff811115610a3657610a3561066e565b5b610a408254610837565b610a4b828285610987565b600060209050601f831160018114610a7e5760008415610a6c578287015190505b610a7685826109f8565b865550610ade565b601f198416610a8c86610868565b60005b82811015610ab457848901518255600182019150602085019450602081019050610a8f565b86831015610ad15784890151610acd601f8916826109da565b8355505b6001600288020188555050505b505050505050565b610aef816103ee565b82525050565b6000610b10610b0b610b06846103ce565b6108ec565b6103ce565b9050919050565b6000610b2282610af5565b9050919050565b6000610b3482610b17565b9050919050565b610b4481610b29565b82525050565b610b538161040f565b82525050565b600082825260208201905092915050565b6000610b7582610428565b610b7f8185610b59565b9350610b8f818560208601610444565b610b988161046e565b840191505092915050565b600060a082019050610bb86000830188610ae6565b610bc56020830187610b3b565b610bd26040830186610b4a565b8181036060830152610be48185610b6a565b9050610bf36080830184610b4a565b969550505050505056fea2646970667358221220e240a5e182a2aee7e72e693b1e641eafb05099c09bccb56f683b699e3ff2a8ba64736f6c63430008130033",
  "linkReferences": {},
  "deployedLinkReferences": {}
}